{
  "contractName": "DINRegistryUtils",
  "abi": [
    {
      "constant": false,
      "inputs": [
        {
          "name": "resolver",
          "type": "address"
        },
        {
          "name": "amount",
          "type": "uint256"
        }
      ],
      "name": "selfRegisterDINsWithResolver",
      "outputs": [],
      "payable": false,
      "stateMutability": "nonpayable",
      "type": "function"
    },
    {
      "constant": true,
      "inputs": [],
      "name": "registry",
      "outputs": [
        {
          "name": "",
          "type": "address"
        }
      ],
      "payable": false,
      "stateMutability": "view",
      "type": "function"
    },
    {
      "constant": false,
      "inputs": [
        {
          "name": "owner",
          "type": "address"
        },
        {
          "name": "resolver",
          "type": "address"
        },
        {
          "name": "amount",
          "type": "uint256"
        }
      ],
      "name": "registerDINsWithResolver",
      "outputs": [],
      "payable": false,
      "stateMutability": "nonpayable",
      "type": "function"
    },
    {
      "constant": false,
      "inputs": [
        {
          "name": "amount",
          "type": "uint256"
        }
      ],
      "name": "selfRegisterDINs",
      "outputs": [],
      "payable": false,
      "stateMutability": "nonpayable",
      "type": "function"
    },
    {
      "constant": false,
      "inputs": [
        {
          "name": "owner",
          "type": "address"
        },
        {
          "name": "amount",
          "type": "uint256"
        }
      ],
      "name": "registerDINs",
      "outputs": [],
      "payable": false,
      "stateMutability": "nonpayable",
      "type": "function"
    },
    {
      "inputs": [
        {
          "name": "_registry",
          "type": "address"
        }
      ],
      "payable": false,
      "stateMutability": "nonpayable",
      "type": "constructor"
    }
  ],
  "bytecode": "0x6060604052341561000f57600080fd5b6040516020806104ec83398101604052808051906020019091905050806000806101000a81548173ffffffffffffffffffffffffffffffffffffffff021916908373ffffffffffffffffffffffffffffffffffffffff160217905550506104718061007b6000396000f30060606040526004361061006d576000357c0100000000000000000000000000000000000000000000000000000000900463ffffffff1680632b124245146100725780637b103999146100b4578063b59ca0f614610109578063c07dc8901461016a578063f5bf7e3d1461018d575b600080fd5b341561007d57600080fd5b6100b2600480803573ffffffffffffffffffffffffffffffffffffffff169060200190919080359060200190919050506101cf565b005b34156100bf57600080fd5b6100c76101de565b604051808273ffffffffffffffffffffffffffffffffffffffff1673ffffffffffffffffffffffffffffffffffffffff16815260200191505060405180910390f35b341561011457600080fd5b610168600480803573ffffffffffffffffffffffffffffffffffffffff1690602001909190803573ffffffffffffffffffffffffffffffffffffffff16906020019091908035906020019091905050610203565b005b341561017557600080fd5b61018b6004808035906020019091905050610338565b005b341561019857600080fd5b6101cd600480803573ffffffffffffffffffffffffffffffffffffffff16906020019091908035906020019091905050610345565b005b6101da338383610203565b5050565b6000809054906101000a900473ffffffffffffffffffffffffffffffffffffffff1681565b60008090505b81811015610332576000809054906101000a900473ffffffffffffffffffffffffffffffffffffffff1673ffffffffffffffffffffffffffffffffffffffff16635849cf7785856000604051602001526040518363ffffffff167c0100000000000000000000000000000000000000000000000000000000028152600401808373ffffffffffffffffffffffffffffffffffffffff1673ffffffffffffffffffffffffffffffffffffffff1681526020018273ffffffffffffffffffffffffffffffffffffffff1673ffffffffffffffffffffffffffffffffffffffff16815260200192505050602060405180830381600087803b151561030957600080fd5b6102c65a03f1151561031a57600080fd5b50505060405180519050508080600101915050610209565b50505050565b6103423382610345565b50565b60008090505b81811015610440576000809054906101000a900473ffffffffffffffffffffffffffffffffffffffff1673ffffffffffffffffffffffffffffffffffffffff1663873f9a6a846000604051602001526040518263ffffffff167c0100000000000000000000000000000000000000000000000000000000028152600401808273ffffffffffffffffffffffffffffffffffffffff1673ffffffffffffffffffffffffffffffffffffffff168152602001915050602060405180830381600087803b151561041757600080fd5b6102c65a03f1151561042857600080fd5b5050506040518051905050808060010191505061034b565b5050505600a165627a7a72305820ef5657b56e446c31efff211224db5d0961f1ad46ba039e3a5a8ae22ce6d60d890029",
  "source": "pragma solidity ^0.4.17;\n\nimport \"./DINRegistry.sol\";\n\n/** @title Convenience methods for DINRegistry */\ncontract DINRegistryUtils {\n\n    DINRegistry public registry;\n\n    // Constructor\n    function DINRegistryUtils(DINRegistry _registry) public {\n        registry = _registry;\n    }\n\n    /**\n     * @dev Self-register multiple new DINs.\n     * @param amount The amount of DINs to register.\n     */\n    function selfRegisterDINs(uint256 amount) public {\n        registerDINs(msg.sender, amount);\n    }\n\n    /**\n     * @dev Self-register multiple new DINs and set the resolver.\n     * @param resolver The address of the resolver.\n     * @param amount The amount of DINs to register.\n     */\n    function selfRegisterDINsWithResolver(address resolver, uint256 amount) public {\n        registerDINsWithResolver(msg.sender, resolver, amount);\n    }\n\n    /**\n     * @dev Register multiple new DINs.\n     * @param owner The account that will own the DINs.\n     * @param amount The amount of DINs to register.\n     */\n    function registerDINs(address owner, uint256 amount) public {\n        for (uint i = 0; i < amount; i++) {\n            registry.registerDIN(owner);\n        }\n    }\n\n    /**\n     * @dev Register multiple new DINs and set the resolver.\n     * @param owner The account that will own the DINs.\n     * @param resolver The address of the resolver.\n     * @param amount The amount of DINs to register.\n     */\n    function registerDINsWithResolver(address owner, address resolver, uint256 amount) public {\n        for (uint i = 0; i < amount; i++) {\n            registry.registerDINWithResolver(owner, resolver);\n        }\n    }\n\n}",
  "sourcePath": "/Users/polaco/Prog/sandbox/haggle/contracts/DIN/DINRegistryUtils.sol",
  "compiler": {
    "name": "solc",
    "version": "0.4.18+commit.9cf6e910.Emscripten.clang"
  },
  "schemaVersion": "1.0.1",
  "updatedAt": "2018-01-10T01:20:13.874Z"
}