{
  "contractName": "DINSearch",
  "abi": [
    {
      "constant": true,
      "inputs": [],
      "name": "registry",
      "outputs": [
        {
          "name": "",
          "type": "address"
        }
      ],
      "payable": false,
      "stateMutability": "view",
      "type": "function"
    },
    {
      "constant": true,
      "inputs": [],
      "name": "genesis",
      "outputs": [
        {
          "name": "",
          "type": "uint256"
        }
      ],
      "payable": false,
      "stateMutability": "view",
      "type": "function"
    },
    {
      "constant": true,
      "inputs": [
        {
          "name": "owner",
          "type": "address"
        },
        {
          "name": "count",
          "type": "uint256"
        },
        {
          "name": "minDIN",
          "type": "uint256"
        }
      ],
      "name": "DINsWithOwner",
      "outputs": [
        {
          "name": "result",
          "type": "uint256[]"
        }
      ],
      "payable": false,
      "stateMutability": "view",
      "type": "function"
    },
    {
      "constant": true,
      "inputs": [
        {
          "name": "resolver",
          "type": "address"
        },
        {
          "name": "count",
          "type": "uint256"
        },
        {
          "name": "minDIN",
          "type": "uint256"
        }
      ],
      "name": "DINsWithResolver",
      "outputs": [
        {
          "name": "result",
          "type": "uint256[]"
        }
      ],
      "payable": false,
      "stateMutability": "view",
      "type": "function"
    },
    {
      "inputs": [
        {
          "name": "_registry",
          "type": "address"
        }
      ],
      "payable": false,
      "stateMutability": "nonpayable",
      "type": "constructor"
    }
  ],
  "bytecode": "0x6060604052633b9aca00600155341561001757600080fd5b60405160208061079183398101604052808051906020019091905050806000806101000a81548173ffffffffffffffffffffffffffffffffffffffff021916908373ffffffffffffffffffffffffffffffffffffffff1602179055505061070e806100836000396000f300606060405260043610610062576000357c0100000000000000000000000000000000000000000000000000000000900463ffffffff1680637b10399914610067578063a7f0b3de146100bc578063c2e9ed6a146100e5578063ef74445614610185575b600080fd5b341561007257600080fd5b61007a610225565b604051808273ffffffffffffffffffffffffffffffffffffffff1673ffffffffffffffffffffffffffffffffffffffff16815260200191505060405180910390f35b34156100c757600080fd5b6100cf61024a565b6040518082815260200191505060405180910390f35b34156100f057600080fd5b61012e600480803573ffffffffffffffffffffffffffffffffffffffff16906020019091908035906020019091908035906020019091905050610250565b6040518080602001828103825283818151815260200191508051906020019060200280838360005b83811015610171578082015181840152602081019050610156565b505050509050019250505060405180910390f35b341561019057600080fd5b6101ce600480803573ffffffffffffffffffffffffffffffffffffffff1690602001909190803590602001909190803590602001909190505061048f565b6040518080602001828103825283818151815260200191508051906020019060200280838360005b838110156102115780820151818401526020810190506101f6565b505050509050019250505060405180910390f35b6000809054906101000a900473ffffffffffffffffffffffffffffffffffffffff1681565b60015481565b6102586106ce565b6000806102636106ce565b600080600154871161027757600154610279565b865b94506000809054906101000a900473ffffffffffffffffffffffffffffffffffffffff1673ffffffffffffffffffffffffffffffffffffffff16632986c0e56000604051602001526040518163ffffffff167c0100000000000000000000000000000000000000000000000000000000028152600401602060405180830381600087803b151561030857600080fd5b6102c65a03f1151561031957600080fd5b505050604051805190509350876040518059106103335750595b90808252806020026020018201604052509250600091508490505b8381111515610480578873ffffffffffffffffffffffffffffffffffffffff166000809054906101000a900473ffffffffffffffffffffffffffffffffffffffff1673ffffffffffffffffffffffffffffffffffffffff1663a123c33e836000604051602001526040518263ffffffff167c010000000000000000000000000000000000000000000000000000000002815260040180828152602001915050602060405180830381600087803b151561040657600080fd5b6102c65a03f1151561041757600080fd5b5050506040518051905073ffffffffffffffffffffffffffffffffffffffff1614156104735780838381518110151561044c57fe5b90602001906020020181815250506001880382141561046a57610480565b81806001019250505b808060010191505061034e565b82955050505050509392505050565b6104976106ce565b6000806104a26106ce565b60008060015487116104b6576001546104b8565b865b94506000809054906101000a900473ffffffffffffffffffffffffffffffffffffffff1673ffffffffffffffffffffffffffffffffffffffff16632986c0e56000604051602001526040518163ffffffff167c0100000000000000000000000000000000000000000000000000000000028152600401602060405180830381600087803b151561054757600080fd5b6102c65a03f1151561055857600080fd5b505050604051805190509350876040518059106105725750595b90808252806020026020018201604052509250600091508490505b83811115156106bf578873ffffffffffffffffffffffffffffffffffffffff166000809054906101000a900473ffffffffffffffffffffffffffffffffffffffff1673ffffffffffffffffffffffffffffffffffffffff1663108eaa4e836000604051602001526040518263ffffffff167c010000000000000000000000000000000000000000000000000000000002815260040180828152602001915050602060405180830381600087803b151561064557600080fd5b6102c65a03f1151561065657600080fd5b5050506040518051905073ffffffffffffffffffffffffffffffffffffffff1614156106b25780838381518110151561068b57fe5b9060200190602002018181525050600188038214156106a9576106bf565b81806001019250505b808060010191505061058d565b82955050505050509392505050565b6020604051908101604052806000815250905600a165627a7a723058205b6d2ced7b5da6bbe2822cc173b5524c7fdcbac2ed258c2b7eed490f8d4d305d0029",
  "source": "pragma solidity ^0.4.17;\n\nimport \"./DINRegistry.sol\";\n\n/** @title Search DINRegistry */\ncontract DINSearch {\n\n    DINRegistry public registry;\n    uint256 public genesis = 1000000000;\n\n    // Constructor\n    function DINSearch(DINRegistry _registry) public {\n        registry = _registry;\n    }\n\n    /**\n     * @dev Search for DINs with a specific owner.\n     * @param owner Address of the owner.\n     * @param count Maximum number of DINs to return.\n     * @param minDIN Minimum DIN to start search.\n     */\n    function DINsWithOwner(address owner, uint count, uint minDIN) public view returns (uint[] result) {\n        uint min = minDIN > genesis ? minDIN : genesis;\n        uint max = registry.index();\n        uint[] memory DINs = new uint[](count);\n        uint i = 0;\n        for (uint j = min; j <= max; j++) {\n            if (registry.owner(j) == owner) {\n                DINs[i] = j;\n                if (i == count - 1) {\n                    break;\n                }\n                i++;\n            }\n        }\n        return DINs;\n    }\n\n    /**\n     * @dev Search for DINs with a specific resolver.\n     * @param resolver Address of the resolver.\n     * @param count Maximum number of DINs to return.\n     * @param minDIN Minimum DIN to start search.\n     */\n    function DINsWithResolver(address resolver, uint count, uint minDIN) public view returns (uint[] result) {\n        uint min = minDIN > genesis ? minDIN : genesis;\n        uint max = registry.index();\n        uint[] memory DINs = new uint[](count);\n        uint i = 0;\n        for (uint j = min; j <= max; j++) {\n            if (registry.resolver(j) == resolver) {\n                DINs[i] = j;\n                if (i == count - 1) {\n                    break;\n                }\n                i++;\n            }\n        }\n        return DINs;\n    }\n\n}\n",
  "sourcePath": "/Users/polaco/Prog/sandbox/haggle/contracts/DIN/DINSearch.sol",
  "compiler": {
    "name": "solc",
    "version": "0.4.18+commit.9cf6e910.Emscripten.clang"
  },
  "schemaVersion": "1.0.1",
  "updatedAt": "2018-01-10T01:20:13.874Z"
}