{
  "contractName": "HaggleSale",
  "abi": [
    {
      "constant": true,
      "inputs": [],
      "name": "seller",
      "outputs": [
        {
          "name": "",
          "type": "address"
        }
      ],
      "payable": false,
      "stateMutability": "view",
      "type": "function"
    },
    {
      "constant": true,
      "inputs": [],
      "name": "quantity",
      "outputs": [
        {
          "name": "",
          "type": "uint256"
        }
      ],
      "payable": false,
      "stateMutability": "view",
      "type": "function"
    },
    {
      "constant": true,
      "inputs": [],
      "name": "status",
      "outputs": [
        {
          "name": "",
          "type": "uint256"
        }
      ],
      "payable": false,
      "stateMutability": "view",
      "type": "function"
    },
    {
      "constant": true,
      "inputs": [],
      "name": "DIN",
      "outputs": [
        {
          "name": "",
          "type": "uint256"
        }
      ],
      "payable": false,
      "stateMutability": "view",
      "type": "function"
    },
    {
      "constant": true,
      "inputs": [],
      "name": "buyer",
      "outputs": [
        {
          "name": "",
          "type": "address"
        }
      ],
      "payable": false,
      "stateMutability": "view",
      "type": "function"
    },
    {
      "constant": true,
      "inputs": [],
      "name": "price",
      "outputs": [
        {
          "name": "",
          "type": "uint256"
        }
      ],
      "payable": false,
      "stateMutability": "view",
      "type": "function"
    },
    {
      "inputs": [
        {
          "name": "_DIN",
          "type": "uint256"
        },
        {
          "name": "_price",
          "type": "uint256"
        },
        {
          "name": "_quantity",
          "type": "uint256"
        },
        {
          "name": "_buyer",
          "type": "address"
        },
        {
          "name": "_seller",
          "type": "address"
        }
      ],
      "payable": false,
      "stateMutability": "nonpayable",
      "type": "constructor"
    },
    {
      "anonymous": false,
      "inputs": [
        {
          "indexed": false,
          "name": "description",
          "type": "string"
        },
        {
          "indexed": false,
          "name": "status",
          "type": "uint256"
        },
        {
          "indexed": false,
          "name": "timestamp",
          "type": "uint256"
        }
      ],
      "name": "LogSaleEvent",
      "type": "event"
    }
  ],
  "bytecode": "0x6060604052341561000f57600080fd5b60405160a0806103558339810160405280805190602001909190805190602001909190805190602001909190805190602001909190805190602001909190505084600081905550836001819055508260028190555081600360006101000a81548173ffffffffffffffffffffffffffffffffffffffff021916908373ffffffffffffffffffffffffffffffffffffffff16021790555080600460006101000a81548173ffffffffffffffffffffffffffffffffffffffff021916908373ffffffffffffffffffffffffffffffffffffffff160217905550505050505061025b806100fa6000396000f300606060405260043610610078576000357c0100000000000000000000000000000000000000000000000000000000900463ffffffff16806308551a531461007d57806317fc45e2146100d2578063200d2ed2146100fb57806371258011146101245780637150d8ae1461014d578063a035b1fe146101a2575b600080fd5b341561008857600080fd5b6100906101cb565b604051808273ffffffffffffffffffffffffffffffffffffffff1673ffffffffffffffffffffffffffffffffffffffff16815260200191505060405180910390f35b34156100dd57600080fd5b6100e56101f1565b6040518082815260200191505060405180910390f35b341561010657600080fd5b61010e6101f7565b6040518082815260200191505060405180910390f35b341561012f57600080fd5b6101376101fd565b6040518082815260200191505060405180910390f35b341561015857600080fd5b610160610203565b604051808273ffffffffffffffffffffffffffffffffffffffff1673ffffffffffffffffffffffffffffffffffffffff16815260200191505060405180910390f35b34156101ad57600080fd5b6101b5610229565b6040518082815260200191505060405180910390f35b600460009054906101000a900473ffffffffffffffffffffffffffffffffffffffff1681565b60025481565b60055481565b60005481565b600360009054906101000a900473ffffffffffffffffffffffffffffffffffffffff1681565b600154815600a165627a7a72305820521a59b94a8309e1e1f2cf4d5bbe79d71c6c592acf76f2cec05be821352951950029",
  "source": "pragma solidity ^0.4.18;\n\nimport \"./AccessControl.sol\";\n\n/// @title Haggle Sale contract, governs the sale process with escrow.\ncontract HaggleSale {\n  uint public DIN;\n  uint public price;\n  uint public quantity;\n  address public buyer;\n  address public seller;\n  uint public status;\n\n  // events\n  event LogSaleEvent(string description, uint status, uint timestamp);\n\n  // Constructor \n  function HaggleSale(\n      uint _DIN,\n      uint _price, // ETH\n      uint _quantity,\n      address _buyer,\n      address _seller\n  ) public {\n      DIN = _DIN;\n      price = _price;\n      quantity = _quantity;\n      buyer = _buyer;\n      seller = _seller;\n  }\n\n  // Change status to Confirmed\n  // Change status to Shipped\n  // Change status to Delivered\n  // Change status to Returned\n  // Change status to Final\n  // Cancel sale (only buyer if not confirmed, seller if not shipped, refunds user)\n\n\n}\n\n/// @title Haggle Item contract, creates sales contracts when deals are met.\ncontract HaggleItem{\n  uint public DIN;\n  uint public price;\n  uint public quantity;\n  address public owner;\n  address public haggleAddress;\n\n  event LogSale(address saleContract, uint DIN, uint price, address buyer, address seller, uint timestamp);\n\n  // Constructor\n  function HaggleItem(\n      uint _DIN,\n      uint _price, // ETH\n      uint _quantity,\n      address _retailer\n  ) public {\n      DIN = _DIN;\n      price = _price;\n      quantity = _quantity;\n      owner = _retailer;\n      haggleAddress = msg.sender;\n  }\n\n  // Buy Boosters with eth\n  function buyItemEth(uint _orderQuantity) public payable {\n      require(_orderQuantity >= quantity);\n      require(msg.value == _orderQuantity * price);\n\n      // creates sale contract and transfers value to it\n      address saleAddress = _createSaleContract(_orderQuantity);\n      saleAddress.transfer(msg.value);\n  }\n\n  // Buy Items with HAGL\n  // Caller needs to approve transfer previously in coin's contract\n  function buyItemHagl(uint _orderQuantity) public {\n      // gets hagglerate and HAGL address from Haggle contract\n      Haggle haggleContract = Haggle(haggleAddress);\n\n      // checks if there is approval and transfer items;\n      address coinContract = haggleContract.haggleCoinAddress();\n      uint haglRate = haggleContract.haggleRate();\n\n      ERC20 tokenContract = ERC20(coinContract);\n      require(tokenContract.transferFrom(msg.sender, address(this), price * _orderQuantity * haglRate ));\n\n      // creates sale contract and transfers value to it\n      address saleAddress = _createSaleContract(_orderQuantity);\n      tokenContract.transfer(saleAddress, price * _orderQuantity * haglRate);\n  }\n\n  // internal function to create sale contract\n  function _createSaleContract(uint _orderQuantity) private returns ( address contractAddress ){\n      address saleAddress = new HaggleSale(DIN, price, _orderQuantity, msg.sender, owner);\n      LogSale(saleAddress, DIN, price, msg.sender, owner, now);\n      return saleAddress;\n  }\n\n  // haggle functions\n\n}\n\n/// @title Haggle main contract, creates items/sale contracts upon request.\ncontract Haggle is AccessControl {\n\n    uint public haggleRate = 1000; // 0.001 ETH, bit less then 5 USD\n    address public haggleCoinAddress;\n\n    /// @dev Emited when an Item is created\n    event LogHaggleItem(uint DIN, uint price, uint quantity, address owner, address itemAddress, uint timestamp);\n\n    // fallback function, will run if ETH is sent to the contract\n    // will send back boosterCoin to msg.sender\n    // ensure conract owns enough HAGL\n    function() public payable {\n        require(msg.value > 0);\n\n        // send back Haggle tokens\n        ERC20 CoinContract = ERC20(haggleCoinAddress);\n        uint coinAmount = msg.value  * haggleRate;\n        CoinContract.transfer(msg.sender, coinAmount);\n    }\n\n    // Creates a new HaggleItem smart contract\n    function createItemContract(uint _din, uint _price, uint _quantity) internal returns (HaggleItem) {\n        address itemAddress = new HaggleItem(_din, _price, _quantity, msg.sender);\n        // event\n        LogHaggleItem(_din, _price, _quantity, msg.sender, itemAddress, now);\n    }\n\n    function changeCoinAddress ( address _newAddress ) public canAccess(\"changeCoinAddress\") {\n        haggleCoinAddress = _newAddress;\n    }\n\n    function changeHaglRate ( uint _newRate ) public canAccess(\"changeHAGLPrice\") {\n        haggleRate = _newRate;\n    }\n}\n",
  "sourcePath": "/Users/polaco/Prog/sandbox/haggle/contracts/Haggle.sol",
  "compiler": {
    "name": "solc",
    "version": "0.4.18+commit.9cf6e910.Emscripten.clang"
  },
  "schemaVersion": "1.0.1",
  "updatedAt": "2018-01-10T01:20:13.879Z"
}